:100000000C9420040C9467040C9467040C9467040B
:100010000C9467040C9467040C9467040C946704B4
:100020000C9467040C9467040C944E2A0C94202BB7
:100030000C945C250C9467040C9467040C9467047E
:100040000C9467040C9467040C9467040C94670484
:100050000C9467040C94B5250C9467040C94670405
:100060000C9467040C9467040C9467040C94670464
:100070000C9467040C9467040C9467040C94670454
:100080000C9467040C9467040C9467040C94670444
:100090000C9467040C9467040C9467040C94670434
:1000A0000C9467040C9467040C94670438073807B1
:1000B00064076407CC07EA070F090F09F5078A08E8
:1000C0009B089B08FF080F090F090809B309B3092A
:1000D000C509C509BC09C509C509C509B309B309DD
:1000E000C109C509C509C1098D2BB42BAC2CB42B92
:1000F000AC2C002C232CAC2C7A2C892C29003A0017
:100100003B003C003D003E003F00400041004200FB
:1001100043004400450046004C00490035001E00E5
:100120001F002000210022002300240025002600BB
:1001300027002D002E00000031004B002B44000052
:1001400014001A000800150017001C0018000C000D
:10015000120013002F4430002A004E00035100000B
:1001600004001600070009000A000B000D000E0035
:100170000F0033003400280000004A00E1000000B6
:100180001D001B00060019000500110010003600BC
:10019000370038000000E50052004D00F45CE30039
:1001A0000000E200015100002C000000025100009C
:1001B000E6000000F55C500051004F000100010016
:1001C0000100010001000100010001000100010027
:1001D00001000100010001000100010029003A00B6
:1001E0003B003C003D003E003F004000410042001B
:1001F00043004400450000004C00010000000000E6
:1002000029004B0117014E0152054B004A005200D4
:100210004D004C00460001000100010001000000FB
:10022000390050052B004F0551054E00500051007C
:100230004F0049000100010000000100E100000042
:1002400041014B031A014E03E40065001705040148
:100250000100010000000100010001000100010097
:10026000000001002C410000E0000000E60000005A
:10027000010001000100010001000100A5000000D3
:1002800000000000CC5CCD5C00000000000000001D
:1002900000000000000000000000005CC45CC55CC1
:1002A000C65CC75CC85CC95C0000000000000000C0
:1002B000000000000000000000000000CA5C000018
:1002C000CB5CA800A900AE0000004B083308520820
:1002D000340800000000000000000000CE5C0000B8
:1002E000C35CAC00AA00AB0000004E0850085108E7
:1002F0004F0800000000000000000000CF5C00007C
:10030000D05CD15CD25CD35CD45CD55C3708000097
:10031000380800000000000000000000A6000000F7
:100320000000000000000000000000002C4200005F
:1003300000000000000000000000A7000000000016
:1003400000000000000000000000000000000000AD
:10035000000000000000000000000000000000009D
:10036000000000000000000000000000000000008D
:10037000000000000000000000000000000000007D
:1003800000000000000000000000F900FB00ED008C
:10039000FC000000000000000000000039430000E5
:1003A0000000FD00FE00FF000000FA00EF00EE007C
:1003B000F00000000000000000000000000000004D
:1003C000000000000000000000000000000000002D
:1003D000000000000000000000000000000000001D
:1003E00000000000F2000000F1000000F300000037
:1003F00000000000000000000000000000000000FD
:1004000000000000000000000000000000000000EC
:100410000000000000000000000000002B000000B1
:1004200000000000000000000000000000000000CC
:1004300000000000000000000000000000000000BC
:100440001F02220255005400210255005F00600087
:100450006100570000000000000000002D020000B5
:10046000310224021E023802230254005C005D00A7
:100470005E00560000000000000000002F02000097
:10048000300257002D0020023502530059005A0057
:100490005B00580000000000000000002F0030004A
:1004A00000003500670000006200000063000000EB
:1004B00000000000000000000000000000047F3F7A
:1004C0001F643214643214783C1E1E140A05222361
:1004D000252628292A2C2D2F3032333536383A3B21
:1004E0003D3E4042434547494A4C4E505153555773
:1004F000595A5C5E6062646668696B6D6F71737592
:1005000077797B7D7F81838587898A8C8E90929491
:1005100096989A9C9E9FA1A3A5A7A8AAACAEAFB19E
:10052000B3B4B6B8B9BBBCBEBFC1C2C3C5C6C7C9E8
:10053000CACBCCCDCED0D1D2D2D3D4D5D6D7D7D8A2
:10054000D9D9DADADBDBDBDCDCDCDCDCDDDDDDDDF4
:10055000DCDCDCDCDCDBDBDBDADAD9D9D8D7D7D6FC
:10056000D5D4D3D2D2D1D0CECDCCCBCAC9C7C6C5B3
:10057000C3C2C1BFBEBCBBB9B8B6B4B3B1AFAEACF9
:10058000AAA8A7A5A3A19F9E9C9A98969492908EA4
:100590008C8A89878583817F7D7B79777573716F7D
:1005A0006D6B6968666462605E5C5A595755535159
:1005B000504E4C4A4947454342403E3D3B3A38360F
:1005C000353332302F2D2C2A292826252322FFAA25
:1005D0007F554000010101010101010101020202F8
:1005E00002020202020203030303030303030404DF
:1005F00004040404040505050505060606060607A9
:100600000707070708080808090909090A0A0A0B61
:100610000B0B0C0C0C0D0D0D0E0E0E0F0F0F101002
:100620001111111212131314141515161617171889
:100630001819191A1A1B1B1C1D1D1E1E1F202021F4
:100640002222232424252626272829292A2B2C2D3B
:100650002D2E2F30313232333435363738393A3B5C
:100660003C3D3E3F404142434445464748494A4C51
:100670004D4E4F50515354555658595A5B5D5E5F1D
:10068000616264656668696B6C6D6F7072737577B3
:10069000787A7B7D7E8082838587888A8C8E8F9115
:1006A000939596989A9C9EA0A2A3A5A7A9ABADAF3F
:1006B000B1B3B5B7BABCBEC0C2C4C6C9CBCDCFD129
:1006C000D4D6D8DBDDDFE2E4E7E9EBEEF0F3F5F8D2
:1006D000FAFDFF0C034B00420044003700350000D8
:1006E00000160371006D006B006200750069006CFC
:1006F0000064006500720000000403090409023B65
:1007000000020100A0FA0904000001030101000930
:1007100021110100012240000705810308000A0998
:10072000040100010300000009211101000122B6AB
:10073000000705820320000A1201000200000008E1
:10074000424B616002000102000105010902A101A2
:1007500085020901A10005091901290815002501D3
:100760009508750181020501093009311581257F40
:1007700095027508810609381581257F9501750850
:100780008106050C0A38021581257F9501750881BF
:1007900006C0C005010980A101850319012AB7001F
:1007A000150126B700950175108100C0050C0901DF
:1007B000A101850419012AA002150126A0029501B4
:1007C00075108100C005010906A1018506050719FC
:1007D000E029E71500250195087501810205071933
:1007E0000029EF1500250195F07501810205081912
:1007F000012905950575019102950175039101C0C7
:1008000005010906A101050719E029E715002501E1
:100810009508750181029501750881010507190088
:1008200029FF150026FF00950675088100050819A7
:10083000012905950575019102950175039101C086
:1008400011241FBECFEFDAE0DEBFCDBF04B603FE3A
:1008500027C08091340390913503A0913603B09165
:1008600037038730904BA740B04BD1F4109234033C
:1008700010923503109236031092370314BE84B7DA
:10088000877F84BF0FB6F894A89580916000886137
:1008900080936000109260000FBEE0E0F8E30995DD
:1008A00011E0A0E0B1E0EAEAFBE502C005900D929C
:1008B000A83CB107D9F723E0A8ECB1E001C01D9234
:1008C000A433B207E1F70E94CC150C94D32D0C94FD
:1008D000000081FF02C02A9801C02A9A0C94550595
:1008E000229A0C947D1481E0089581E008950C947F
:1008F000750408950C9479041F93CF93DF9300D06F
:1009000000D01F92CDB7DEB749835A836B833091F5
:10091000CA0189819A81311114C0662359F02223BA
:1009200049F00E94570B182F682F89819A810E94E5
:10093000000B03C00E942B0B182F69817A81812F35
:1009400004C00E94570B69817A810F900F900F901D
:100950000F900F90DF91CF911F910C941312FC0117
:10096000262F408151816281738184810C947C04A3
:1009700081E00895CF93DF93EC0160E00E94AF0423
:10098000BE01DF91CF910C947A040E9442140E9420
:1009900065050E946F210C9470040C947B1480E018
:1009A0000E94B92080E00E9468050C94481D0895BB
:1009B0000C94D7040E94A1090E94D8042FEF84E36D
:1009C0009CE0215080409040E1F700C000000C9472
:1009D000DB250F931F93CF93DF938C0161E00E947F
:1009E000AF04EC01B8010E947704882309F44BC0DE
:1009F000B801CE010E948420882309F444C0B801C4
:100A0000CE010E9480238823F1F1B801CE010E941B
:100A1000AA218823C1F1B801CE010E94DC228823DB
:100A200091F1B801CE010E94CB1E882361F1F8013B
:100A30008281882309F1CB358DE5D807C1F050F4C8
:100A4000C115FCE5DF0781F0CF3DDC45A9F40E942C
:100A50000B1119C0CC35EDE5DE0761F0CD35DD4574
:100A600059F40E944E1008C00E94DA040CC00E9483
:100A7000571002C00E945A10C801DF91CF911F91F8
:100A80000F910C94730480E0DF91CF911F910F912F
:100A900008950C94D7040E94A81F0E94DC230E9492
:100AA00068050E94141E0C944905089581E008957C
:100AB000CF93C82F0E945605882329F0C1FD02C09C
:100AC0002A9A01C02A98CF910895229A2A9A0895C5
:100AD000CF93C82F0E9469048C2F0E945805CF9194
:100AE0000895CF93DF93CDB7DEB72B970FB6F89469
:100AF000DEBF0FBECDBF4F83588769877A878B874C
:100B000061110E949A0F9E012F5F3F4F86E0F9010D
:100B100011928A95E9F785E0FE013796D901019097
:100B20000D928A95E1F789819A814C815D81452BEF
:100B300031F09F3F31F491E08F3F19F403C091E011
:100B400001C090E090FF09C049815A816B817C818E
:100B50008D819E810E94BB0E05C0C9010E94B80410
:100B60008111F2CF2B960FB6F894DEBF0FBECDBF2A
:100B7000DF91CF910895FC01808191810E94990BB2
:100B80000895CF93882309F4A4C0C82F8238C1F4F4
:100B90000E94DC2381FD9DC069E380910201909158
:100BA00003010E94D2240E94CC0F2FEF81EE94E02B
:100BB000215080409040E1F700C0000069E319C077
:100BC000833801F50E94DC2380FD83C063E58091BA
:100BD0000201909103010E94D2240E94CC0F2FEFBA
:100BE00081EE94E0215080409040E1F700C0000089
:100BF00063E580910201909103010E94DD24CF9171
:100C00000C94CC0F8438C1F40E94DC2382FD61C0B7
:100C100067E480910201909103010E94D2240E9416
:100C2000CC0F2FEF81EE94E0215080409040E1F70F
:100C300000C0000067E4DDCF8CEF8C0F813AD0F468
:100C40006C2F80910201909103010E94522488230D
:100C500049F06C2F80910201909103010E94DD24E4
:100C60000E94CC0F6C2F80910201909103010E9491
:100C7000D224C5CF80E28C0F883048F4C77081E061
:100C800001C0880FCA95EAF70E947D0FB8CFEBE547
:100C9000EC0FE33040F4F0E0E85AFE4F808190E042
:100CA000CF910C941024E8E5EC0FE73150F4F0E01C
:100CB000EE0FFF1FE65DFE4F80819181CF910C9476
:100CC0002624CD3E30F08C2F0E945B16CF910C94E1
:100CD0002D17CF910895882309F464C0823879F4E0
:100CE0000E94DC2381FF5EC069E380910201909144
:100CF00003010E94D2240E94CC0F69E310C0833804
:100D0000B1F40E94DC2380FF4DC063E580910201B5
:100D1000909103010E94D2240E94CC0F63E5809140
:100D20000201909103010E94DD240C94CC0F8438C1
:100D300079F40E94DC2382FF35C067E480910201D0
:100D4000909103010E94D2240E94CC0F67E4E7CF68
:100D50009CEF980F913A10F4682FE1CF90E2980F32
:100D6000983050F4877091E001C0990F8A95EAF7A6
:100D7000892F0E94830FD9CF9BE5980F933020F4E1
:100D800080E090E00C94102498E5980F973120F4BF
:100D900080E090E00C9426248D3E20F00E94B61650
:100DA0000C942D1708951F93CF93DF93182FEB0109
:100DB0000E94C105209741F08FE99FE00197F1F76C
:100DC00000C000002197F6CF812FDF91CF911F91B6
:100DD0000C946B06893319F060E070E002C060E5A6
:100DE00070E00C94D306882321F00E947D0F0C94B0
:100DF000CC0F0895882321F00E94830F0C94CC0F10
:100E00000895CF92DF92EF92FF920F931F93CF93AB
:100E1000DF937C01162FC72FFC01D281058102953B
:100E20000F700E94730F8823B9F0DD23A9F08C2F77
:100E3000807F803421F080E2810F883068F08091DB
:100E4000D40282FD09C082E00E941C100E94730F30
:100E500091E0D82ED92601C0D12CCC2EC2948FE09F
:100E6000C8228C2D90E0FC01EA5AFF4F0C943A2DD9
:100E70008C2F807FCF70882311F0C295C07FDD2337
:100E800099F0CC2309F4A6C180E2810F883010F0DC
:100E9000111104C08C2F0E947D0F03C08C2F0E9463
:100EA0008D0F0E94CC0F96C1812F0E946B06CC2320
:100EB00009F4B5C180E2810F883038F1112329F19E
:100EC0008C2F0E94930F24C08C2F807FCF70803294
:100ED00011F0C295C07F112319F01130A1F13DC06E
:100EE0008091D40282FF17C0DD2349F0CC2329F082
:100EF0008C2F0E947D0F0E94CC0F80E06CC180E09F
:100F00000E946B06CC2309F48AC18C2F0E94830FA8
:100F10000E94CC0F84C1DD2371F0002341F0013029
:100F200031F40E94AD0F8C2B0E94B50F78C10E9446
:100F3000AD0F8C2B1DC0002319F0013009F46FC1D7
:100F40000E94C20F25C0DD2321F0033008F067C1E5
:100F50000EC0023008F063C11BC0DD2361F0002326
:100F600031F0F701858180FF35C18F7085838C2F2B
:100F70000E94F30654C1002359F0193309F03BC114
:100F8000FFEF27EE83E0F15020408040E1F731C1D0
:100F90008C2F0E94FA0643C18C2F8695869583700C
:100FA00019F0813061F03BC1DD2321F0812F9C2FAE
:100FB000937002C080E090E00E94102438C1DD23CD
:100FC00021F0812F9C2F937002C080E090E00E945E
:100FD00026242DC1812FDD2319F00E945B1602C04B
:100FE0000E94B6160E942D1722C18C2F837009F023
:100FF00045C0D11118C1412F429546954770440F05
:10100000440F612F6F70862F90E0A0E0B0E0042EB7
:1010100004C0880F991FAA1FBB1F0A94D2F714FFA0
:1010200010C00FE010E020E030E004C0000F111FFE
:10103000221F331F4A95D2F70095109520953095C1
:1010400003C000E010E09801C695C695C370BC01CE
:10105000CD01602B712B822B932BC23049F058F4B9
:10106000C13019F00E94160ADEC00E94040ADBC0DB
:101070000E94280AD8C00E94020AD5C0DD2319F0B8
:101080008C2F817001C08695882309F4CCC0412F34
:10109000429546954770440F440F612F6F70862F1D
:1010A00090E0A0E0B0E0042E04C0880F991FAA1FB2
:1010B000BB1F0A94D2F714FF10C00FE010E020E02D
:1010C00030E004C0000F111F221F331F4A95D2F7D2
:1010D000009510952095309503C000E010E0980130
:1010E000C695C695C370BC01CD01602B712B822BB8
:1010F000932BC23049F058F4C13019F00E94DB0A3A
:1011000092C00E94C90A8FC00E94ED0A8CC00E9442
:101110003C0A89C0CF70DD2339F08C2F0E94620A0F
:10112000812F0E94F3067FC0812F0E94FA068C2F28
:101130000E94830A78C0123F21F128F4103F41F049
:10114000113FC1F043C0133F19F1143F79F03EC085
:10115000DD2341F0023008F062C08C2F8F710E94B5
:10116000A80A5DC0033008F05AC0F7CF8091D402BE
:1011700082FF18C0DD2339F08C2F8F710E94620A24
:101180004EC0DD23C9F38C2F8F710E94830A47C0A4
:10119000DD2329F08C2F8F710E944D0A40C00E94E0
:1011A000480A3DC0DD2349F0CF718C2F0E94620AAE
:1011B00063E08C2F0E94011032C081E00E941C105D
:1011C000023068F182E00E941C1029C0DD2331F05A
:1011D000002391F2812F0E94C10521C0002399F2C2
:1011E000193349F49FEFE7EEF3E09150E040F0400F
:1011F000E1F700C00000812F0E946B0610C04C2F49
:101200004F70612FC7010E940F120E94C70B0FC0C1
:101210004C2F4F70612FC7010E94121208C088EF37
:101220008C0D843020F40E94DC230E946805DD20B0
:10123000C9F00E946F0F80FD15C0F70112820E9455
:10124000690F0E94620AC7010E9453090E94690F38
:10125000DF91CF911F910F91FF90EF90DF90CF9092
:101260000C94830ADF91CF911F910F91FF90EF9023
:10127000DF90CF9008950F931F93CF93DF93EC01EE
:10128000688179818A810E94A40B8C010E94FF0AE7
:101290000E94F009B801CE010E940107DF91CF91B1
:1012A0001F910F910895CF93DF93EC01988189816D
:1012B0002B813C81232B31F08F3F31F481E09F3F24
:1012C00019F403C081E001C080E080FD1DC0CE01A3
:1012D0000E94E904811110C00E94730F8823A1F0BD
:1012E0008A81882389F08091D40282FD0DC082E03A
:1012F000DF91CF910C941C10CE010E943B09CE01CE
:10130000DF91CF910C94BA04DF91CF91089580E0E2
:1013100090E00E94102480E090E00E9426240E9429
:101320009A0F0E94AA0F0E94CC0F0E945E180C9484
:101330002D1780910201909103010E94E8240C94E2
:1013400087090E948A0F0C949909E92FE295EF70A2
:101350004E2F50E0FA013297EE30F105B0F4EA5921
:10136000FF4F0C943A2D803F91F018F4883E68F4BA
:101370000EC0843F51F40BC0883E48F0813F29F4F1
:1013800006C093FB882780F9089580E0089581E0E6
:101390000895FC01808191810E94990B0E94A5090A
:1013A0000895CF93DF9300D000D01F92CDB7DEB762
:1013B0000F900F900F900F900F90DF91CF910895A5
:1013C000CF93DF9300D000D000D0CDB7DEB7269604
:1013D0000FB6F894DEBF0FBECDBFDF91CF91089559
:1013E000089508950C94F1090C94F2090E94F409EF
:1013F00060930B0270930C0280930D0290930E0287
:101400000C9487090C94F6090F931F9300910B021B
:1014100010910C0220910D0230910E02602B712B65
:10142000822B932B1F910F910C94F6090F931F930E
:1014300000910B0210910C0220910D0230910E02CE
:1014400060237123822393231F910F910C94F6093B
:101450000F931F9300910B0210910C0220910D022B
:1014600030910E0260277127822793271F910F91D9
:101470000C94F6090C94F1090E943A0A6093070251
:10148000709308028093090290930A020C948709D2
:1014900060E070E0CB010C943C0A0F931F9341E095
:1014A00050E060E070E08A019B0104C0000F111F52
:1014B000221F331F8A95D2F7C901B8011F910F91DE
:1014C0000C943C0A0F931F9341E050E060E070E001
:1014D00004C0440F551F661F771F8A95D2F780916D
:1014E000070290910802A0910902B0910A028A01B4
:1014F0009B01082B192B2A2B3B2BC901B8011F91EB
:101500000F910C943C0A0F931F9341E050E060E070
:1015100070E004C0440F551F661F771F8A95D2F7ED
:1015200040955095609570958091070290910802C2
:10153000A0910902B0910A028A019B010823192394
:101540002A233B23C901B8011F910F910C943C0A37
:101550000F931F9341E050E060E070E004C0440F3F
:10156000551F661F771F8A95D2F7809107029091C9
:101570000802A0910902B0910A028A019B01082782
:1015800019272A273B27C901B8011F910F910C94F5
:101590003C0A0F931F9300910702109108022091BB
:1015A000090230910A02602B712B822B932B1F9121
:1015B0000F910C943C0A0F931F9300910702109116
:1015C00008022091090230910A02602371238223CC
:1015D00093231F910F910C943C0A0F931F9300913A
:1015E0000702109108022091090230910A02602737
:1015F0007127822793271F910F910C943C0A08951D
:1016000020E1929F800D1124E82FE695E695E6955E
:10161000877051E001C0550F8A95EAF785E0E89F91
:10162000F0011124E553FE4F20E030E070E04081EE
:10163000CB01022E02C0969587950A94E2F781703D
:10164000819584278523842781932F5F3F4F253001
:10165000310569F7089520E1929F800D1124682FCC
:10166000669566956695982F977085E0689FB0019E
:10167000112440E050E080E0FB01E40FF51FE5534A
:10168000FE4F208130E0092E02C0369527950A943E
:10169000E2F721703327042E01C0220F0A94EAF7E3
:1016A000822B4F5F5F4F4530510531F70895BF9250
:1016B000CF92DF92EF92FF920F931F93CF93DF931E
:1016C0008C01C0900702D0900802E0900902F090CF
:1016D0000A0280910B0290910C02A0910D02B09130
:1016E0000E02C82AD92AEA2AFB2ACFE1D0E0D70184
:1016F000C6010C2E04C0B695A795979587950A94B8
:10170000D2F780FD04C0219790F7B12C07C0BC2E02
:10171000B8018C2F0E944C130197A9F38B2DDF91F8
:10172000CF911F910F91FF90EF90DF90CF90BF90DE
:101730000895CF93DF93EC010E94570BBE010E94E6
:101740004C13DF91CF9108951F93CF93DF93EB015B
:101750009091CA01992321F0CB010E94990B13C0EB
:10176000882349F0CB010E94570B182F682FCE0118
:101770000E94000B04C0CB010E942B0B182FBE014E
:10178000812F0E944C13DF91CF911F910895EF920A
:10179000FF920F931F93CF93DF938C01892B09F452
:1017A0006CC0F12CEE24E394E8012196F8018491B9
:1017B000843740F4843008F051C0813081F08230A9
:1017C00019F15BC0853709F444C0A8F19CE7980F74
:1017D000903708F052C08F770E946B0641C00E5FB1
:1017E0001F4FFE01849190E2980F983050F487705B
:1017F000FE2D01C0FF0F8A95EAF78F2F0E949D0FE3
:1018000014C00E94C1052DC00E5F1F4FFE018491C0
:1018100090E2980F983060F48770FE2D01C0FF0FA2
:101820008A95EAF78F2F0E94A30F0E94CC0F19C050
:101830000E946B0616C00E5F1F4FFE01C491CC23A1
:1018400081F08FE99FE00197F1F700C00000C150DF
:10185000F6CF0E5F1F4FFE01F49003C00E94C1053A
:101860008E018F2D882309F49FCFEFE9FFE0319798
:10187000F1F700C000008150F5CFDF91CF911F91AB
:101880000F91FF90EF9008951F93CF93DF93C09136
:101890000F0216E080911002C81799F0D0E01C9F4B
:1018A000F0011D9FF00D1124EF5EFD4F408151812D
:1018B00062817381848195810E94E0092196C770BD
:1018C000E9CFDF91CF911F9108954091410250914E
:1018D00042026091430270914402809145029091CE
:1018E00046020C94E009EF92FF920F931F93CF935F
:1018F000DF938091460282958F7009F065C08091D8
:101900004302882309F460C080910F02F090100216
:10191000109141020091420260914402709145028F
:1019200091E01F3F09F090E0C0910001D0910101CA
:10193000292F96E0E92E8F1509F446C0611571052F
:1019400021F00F3F21F030E003C031E001C0322F21
:1019500090E030FD36C0E89EF001E99EF00D1124C4
:10196000DF01AF5EBD4F11963C911197301329C036
:101970003C91311326C012963C911297311121C02F
:1019800013964D915C911497461B570B4C175D07AE
:10199000C0F4809146028F70806180934602EA5EB7
:1019A000FD4F80818F708061808381E492E00E948E
:1019B0005309DF91CF911F910F91FF90EF900C94FD
:1019C000440C01968770B7CFDF91CF911F910F9193
:1019D000FF90EF9008959F92AF92BF92CF92DF92C7
:1019E000EF92FF920F931F93CF93DF93CDB7DEB7A4
:1019F00061970FB6F894DEBF0FBECDBF8C0185E0B6
:101A0000F801DE011D9601900D928A95E1F7D8014B
:101A10001296EC9090914102E09142022091440292
:101A2000309145022115310531F0EF3F31F481E06D
:101A30009F3F19F403C081E001C080E0B82FB1706E
:101A40009B2E80FD47C1D8014C9111965C91119756
:101A50001396AD90BC90149781E4C82E82E0D82EE6
:101A6000F0904302B501621B730B2091000130918D
:101A70000101FF2009F4D9C0809146026217730763
:101A800008F095C0282F207F09F052C05E1313C0C4
:101A9000491311C0FE2CE1100EC08F70806180933D
:101AA00046020E94650CC6010E94530980914602BD
:101AB000F80185834DC1AB2831F05F3F31F481E0FF
:101AC0004F3F19F403C081E001C080E080FD03C0F6
:101AD00081E08E2502C080E090E0F82FF170FF2EAB
:101AE00080FF1CC080910F022091100236E0821707
:101AF00009F40BC190E0389FF001399FF00D1124DB
:101B0000EF5EFD4F6181561306C06081461303C02E
:101B10006281E61203C001968770E9CFFE2CEE20A9
:101B200009F416C18091460281608093460254C038
:101B30005E1306C0491304C0E11002C0F80199C049
:101B4000C8010E94C909882361F1EE2051F120915A
:101B50004602822F82958F7090E0029774F08091F8
:101B600041029091420298878F831986BB86AA868C
:101B70002C87CE0107960E94530986E0F801A1E464
:101B8000B2E001900D928A95E1F70E94730C0E94D9
:101B9000650C0AC05E1711F1C8010E94C9098111C4
:101BA0002CC0C8010E945309FF24F394D1C0282FF0
:101BB000207F81F77A2DB98AA88A6E2D89890E94A3
:101BC000D10981E492E00E94530986E0D6011D927A
:101BD0008A95E9F70E94650CF12CBAC04913DCCF55
:101BE000E110DACFF8018583C8010E94530986E02D
:101BF000D6011D928A95E9F7ABC0EE2091F22091B3
:101C00004602822F82958F7090E002970CF4B5CF38
:101C100080914102909142029A8389831B82BD8206
:101C2000AC822E83CE010196A6CF6217730708F00F
:101C300044C0FE2CEE2009F4B4CF5E1330C049132B
:101C40002EC02091460220FD21C0822F82958F70E8
:101C5000482F50E041155105C9F0F80125834F3058
:101C6000510541F08F5F982F9295907F822F8F7052
:101C7000892B8583C8010E94530986E0F801A1E4FD
:101C8000B2E001900D928A95E1F73CC086E0F80140
:101C9000A1E4B2E001900D928A95E1F759C0C80124
:101CA0000E94C909811169CF8091460281608093A9
:101CB0004602C8010E9453094BC07A2DB98AA88AEE
:101CC0006E2D89890E94D10986E0D6011D928A95E0
:101CD000E9F718C0EE2009F464CFC8010E94C909D1
:101CE000F82E882309F45DCF86E0F801A1E4B2E084
:101CF00001900D928A95E1F781E492E00E94BB0584
:101D00000E94730C0E94650C23C04D875E878D85F1
:101D10009E850E94990B292F22952F70223028F43E
:101D20009F7039F0811105C00BC0243028F49F70DA
:101D300049F4805E883020F0C8010E9453099F2C2E
:101D4000F92C06C0D80115969C91907F91F7F8CF99
:101D50008F2D61960FB6F894DEBF0FBECDBFDF9119
:101D6000CF911F910F91FF90EF90DF90CF90BF9098
:101D7000AF909F9008951F93CF93DF93CDB7DEB7B9
:101D80002C970FB6F894DEBF0FBECDBF4F83588798
:101D900069877A878B879C87CE0107960E94EB0C18
:101DA0008823D1F09F8188852A853B85232B31F0BC
:101DB0008F3F31F481E09F3F19F403C081E001C0FF
:101DC00080E080FD47C04F81588569857A858B8585
:101DD0009C850E94E0093EC086E0FE013796DE0148
:101DE000119601900D928A95E1F7FF81E8856A8549
:101DF0007B856115710531F0EF3F31F481E0FF3FE4
:101E000019F403C081E001C080E080FD23C020916F
:101E1000100230E0C90101968770992740910F02A6
:101E200050E084179507F1F1F983EA837D836C8391
:101E300096E0929FD001939FB00D1124AF5EBD4FED
:101E4000FE01319601900D929A95E1F78093100270
:101E50000E94440C16E080910F02909110028917A5
:101E600071F1189FC00111248F5E9D4F0E94EB0CF1
:101E7000882329F1E0910F021E9FF0011124EF5EEB
:101E8000FD4F4081518162817381848195810E94DF
:101E9000E00980910F0290E0019687709927809366
:101EA0000F02D9CF0E94A1091092100210920F02C6
:101EB000E1E4F2E086E0DF011D928A95E9F72C96D5
:101EC0000FB6F894DEBF0FBECDBFDF91CF911F914B
:101ED000089580914702859585958595089580910F
:101EE00047028770089590914702977081E009F446
:101EF00080E0089580916B02089590916B02892B88
:101F000080936B020895809590916B028923809352
:101F10006B02089510926B02089590916A02892BCA
:101F200080936A020895809590916A028923809334
:101F30006A02089510926A02089590916902892BAD
:101F40008093690208958095909169028923809316
:101F500069020895109269020895809148020895D7
:101F600008950C94B00F0C94B10F9091D40292FD8F
:101F700008C090914802981721F0809348020C9471
:101F8000B30F089580914802882329F010924802E7
:101F900080E00C94B30F0895E0910201F0910301E9
:101FA00080916B028083E0910201F09103019081A6
:101FB00080916A02892B8083E0910201F0910301F4
:101FC000908180916902892B8083809148028823C7
:101FD00081F0E0910201F09103019081892B8083CF
:101FE00080910201909103010E943C2481110E9482
:101FF000C20F80910201909103010C94E8230C948C
:10200000B00F9091D40292FD10C098E0899F90018A
:102010001124262B209347020E94620A80914702D6
:102020008595859585950C94FF0F0C94620A109206
:10203000470280E00C94FF0F209147028095822395
:1020400080934702982F977099F430E0482F082E1C
:10205000000C550B2417350759F09091D40292FDCE
:1020600007C08595859585950E94830A0C94171065
:1020700008959091D40292FB222720F9281769F045
:1020800080FB92F99093D4028091D3029091D40274
:102090000E94871082E00C941C1008958091D40255
:1020A00082FB882780F991E089270C94391081E020
:1020B0000C94391080E00C9439106FEF7FEF80E0C2
:1020C00090E00C94BD2D80E090E00E94992D21E0DD
:1020D000893E9E4F09F020E0822F089582E090E033
:1020E0000C948B2D83E090E00C948B2DCF9384E0A7
:1020F00090E00E948B2DC82F82E290E00E948B2DF1
:102100002C2F30E0A901582BCA01CF910895CF930D
:10211000C92F682F84E090E00E949F2D6C2F82E2EF
:1021200090E0CF910C949F2DAB01BC018FE090E02B
:102130000C94B12DAB01BC0183E190E00C94B12D66
:1021400060E070E0CB010C949A1060E070E0CB018D
:102150000E9494100C94A01069EE7EEF80E090E055
:102160000E94BD2D60E082E090E00E949F2D60E023
:1021700083E090E00E949F2D10920B0210920C02BF
:1021800010920D0210920E0260E084E090E00E9436
:102190009F2D60E082E290E00E949F2D60E085E04C
:1021A00090E00E949F2D60E086E090E00E949F2DCD
:1021B0006FEF87E090E00E949F2D40E050E0BA0171
:1021C00088E090E00E94B12D60E08DE090E00E94F8
:1021D0009F2D40E050E0BA0188E190E00E94B12DCF
:1021E00060E087E190E00E949F2D40E050E0BA015E
:1021F0008CE190E00E94B12D60E070E080E290E020
:102200000E94BD2D40E050E0BA0188E190E00E94BC
:10221000B12D0C94A5100C94AC10682F8EE090E0BA
:102220000C949F2D0E949A2560937D0270937E02EC
:1022300080937F02909380026093790270937A0278
:1022400080937B0290937C02089585B7806885BF58
:1022500085B7806885BF089581E008950C942C119E
:1022600008950C9430110C9430110C9433110C948B
:1022700030110C9437110C9430110E94251188E212
:1022800094E10E94D2230E943B110C9439110E94C8
:1022900031110C9430110E9485250E9425150E9451
:1022A000A81F0E94D91D0C9435116F927F928F92B6
:1022B0009F92AF92BF92CF92DF92EF92FF920F93D5
:1022C0001F93CF93DF93CDB7DEB72A970FB6F8945D
:1022D000DEBF0FBECDBF0E943A1581110E941211C0
:1022E0003DE6832E32E0932E00E010E0C02E802FDA
:1022F0000E9466145C01F401619071904F016826A0
:10230000792661147104B1F40F5F1F4F0630110577
:1023100069F78FEF89838A831B820E948E258160F3
:10232000782F9D838C8349815A816B818D810E9496
:1023300071053AC08091810281FD0E946F14D12CF9
:10234000EE24E394F12CC3018E219F21892B29F1E6
:102350000E942E118823A9F0DE82CF82AE20BF20FA
:1023600081E0AB2809F480E088870E948E25816097
:10237000782F9A8789874E815F8168858A850E9438
:102380007105000F111FF801E359FD4F8081918104
:10239000E826F926F182E08207C0D394EE0CFF1CF8
:1023A000F0E1DF12D0CFB0CF0E941D1E0E946E213F
:1023B0000E944B170E94DC2390916C028917D1F088
:1023C0000E94DC2380936C022A960FB6F894DEBF3D
:1023D0000FBECDBFDF91CF911F910F91FF90EF9076
:1023E000DF90CF90BF90AF909F908F907F906F9035
:1023F0000C9468052A960FB6F894DEBF0FBECDBFC9
:10240000DF91CF911F910F91FF90EF90DF90CF90D0
:10241000BF90AF909F908F907F906F90089580E0D5
:1024200090E008950895E72FF0E096E0899FE00D91
:10243000F11D112484E0EE0FFF1F8A95E1F7E60FEE
:10244000F11DEE0FFF1FE450FF4F85919491089509
:10245000880F991FFC01E454FB4F859194910895D6
:10246000CF93DF930E945113EC01811520E5920771
:1024700008F03FC0811540E4940708F0D2C0883EC0
:10248000910500F5803E910508F002C1883A91055A
:1024900070F4853A910508F0A6C08130910509F4E1
:1024A0009FC008F4F2C0049708F0F2C0EEC08F3B62
:1024B000910508F4A1C0803C910508F4E6C0805C59
:1024C0009109A5C0811550E2950760F4C11581E01E
:1024D000D80708F0DDC0CD3ED10508F4D6C0CE0146
:1024E0009065D7C0811520E3920708F093C09F70D4
:1024F0008EC0811545E5940708F046C0811554E566
:10250000950708F0A6C0C11582E5D80718F5C115D2
:1025100021E5D20708F088C0CE01F4E096958795B2
:10252000FA95E1F7282F23703C2F337081E090E07B
:1025300002C0880F991F3A95E2F79C68922B2C2FC6
:102540002F702695269540E2249F90011124822B1E
:10255000932B9FC09E01237033279C2F96959695B1
:10256000C115D34508F065C041E050E002C0440FFA
:10257000551F2A95E2F780E2989F90011124CA0125
:10258000822B932B9C6885C0811559E5950798F49B
:10259000C11588E5D80708F061C0C11526E5D20746
:1025A00008F073C08C2F0E94E5138F7190E0982F74
:1025B000882790626EC081154AE5940708F453C0DD
:1025C00090568115904208F060C08D2F8F710E9447
:1025D000E5139E01332730628F71A901582B53C038
:1025E00081E090E056C0855AC82FD0E0C757DE4F33
:1025F000888190E090644DC0885AC82FD0E0CC0FFD
:10260000DD1FC55ADE4F88819981946442C00E94C3
:1026100028123FC09927D3FF02C0986C3AC0906C33
:1026200038C09F70906A35C09C2F8827816F906A50
:1026300030C041E050E002C0440F551F2A95E2F738
:1026400080E2989F90011124CA01822B932B9A68F3
:1026500020C0982F8827846F906A1BC09C2F8827E2
:10266000806F906A16C08F700E94E5139E0194E0FF
:10267000369527959A95E1F72F7030E0322F222773
:102680003069A901482BCA0104C080E090E001C074
:10269000CE01DF91CF9108950E9413120E94301253
:1026A00008958238910569F1B0F48133910509F4F8
:1026B0006DC048F48932910509F463C08A329105EE
:1026C00009F469C008958533910509F455C089332B
:1026D0009105B9F00895833E910569F138F4803E83
:1026E0009105B1F0823E910509F10895863E91056C
:1026F000A9F1873E9105B9F1843E910509F064C0C6
:1027000023C02091D30220FD4FC021FD4DC008956C
:102710008091D30280FD44C08091D40280FF44C0E8
:102720008091D30284FD42C083EE4DC08091D302DC
:1027300082FF38C0F5CF8091D30282FD33C08091F3
:10274000D40280FD31C0ECCF8091D40281FF32C031
:102750008091D30284FD2AC087EE35C08091D302D8
:1027600083FF26C0F5CF8091D30283FD21C08091E5
:10277000D40281FD1FC0ECCF8091D30285FD1CC027
:102780001DC08091D30285FD19C016C08091D3026F
:1027900086FD16C017C08091D30286FD13C010C0FD
:1027A00089E311C082EE0FC080EE0DC080E00BC047
:1027B00086EE09C084EE07C089E205C085E303C048
:1027C0008AE201C081E390E008959091D30292FFE4
:1027D0000DC0282F2871283019F4877F846006C027
:1027E000282F2471243011F48B7F886093FF0DC053
:1027F000282F2871283119F4877E846106C0282F7C
:102800002471243111F48B7E88612091D40220FF41
:102810000DC0382F3871383019F4877F816006C0B9
:10282000382F3171313011F48E7F886021FF0DC057
:10283000282F2871283119F4877E816106C0282F3E
:102840002171213111F48E7E886194FD877E089577
:1028500080E008950C945D100E943A158FE39CE986
:102860000197F1F700C000000E943A1580E00E9435
:10287000661480FF04C00E942A140C94DB2508957E
:102880000C942C140E946310811102C00E940B1141
:102890000E946E10809381020E9476109093D40261
:1028A0008093D3020E9440140E947210682F70E03F
:1028B00080E090E00E94020A609107027091080295
:1028C0008091090290910A020C943A0AE82FF0E0F4
:1028D000EE0FFF1FEF51FD4F808191810895089504
:1028E00080EA8A95F1F7089500C008950C94701459
:1028F00008950C9478140C9479140C947814F8942A
:10290000E82FE295EF70F0E031A1282F2F7081E0E1
:1029100090E001C0880F2A95EAF7982F90959323AD
:1029200091A392A1892B82A3789408950F931F936A
:10293000CF93DF93CCE9D1E089918F3F11F00E94D2
:102940007F1481E0C23AD807B9F7CCE8D1E00CE9AE
:1029500011E089918F3F11F00E947F140C171D0721
:10296000C1F7DF91CF911F910F910895BF92CF9240
:10297000DF92EF92FF920F931F93CF93DF938C011F
:10298000C62FD0E0CE0184569E4F6C01FC01908191
:102990009F3F09F450C0B62EF894E92FE295EF70EE
:1029A000F0E081A19F7021E030E001C0220F9A95F4
:1029B000EAF7822B81A382A12095282322A3789471
:1029C0000E947414ECE8F1E04CE951E021E030E0C1
:1029D000E12CF12C61916F3F89F0A62FA295AF7089
:1029E000B0E090968C9190E06F7002C095958795BD
:1029F0006A95E2F780FD02C0C90102C080E090E064
:102A0000E82AF92A220F331F4E175F0719F7F6013C
:102A100080818F3F11F00E947F1461E0E114F10486
:102A200009F460E08B2D0E947614CC0FDD1FC00FDF
:102A3000D11FF982E882DF91CF911F910F91FF9012
:102A4000EF90DF90CF90BF9008950E9496148CE095
:102A5000E1EEF2E0DF01982F1D929A95E9F7E5ED9E
:102A6000F2E0DF011D928A95E9F786E00E94851564
:102A70000C94C504FF920F931F93CF93DF93CDB7B0
:102A8000DEB72C970FB6F894DEBF0FBECDBF8E0118
:102A90000F5F1F4F8CE0F80111928A95E9F7F12C36
:102AA0006F2DC8010E94B614F394F6E0FF12F8CF20
:102AB0004CE050E0B80185ED92E00E947E2DFF24AD
:102AC000F394009709F4F12C892B41F08CE0F80184
:102AD000A5EDB2E001900D928A95E1F72F2D46E029
:102AE00061EE72E085ED92E00E9486150E94CD04B1
:102AF0008F2D2C960FB6F894DEBF0FBECDBFDF91A1
:102B0000CF911F910F91FF9008950895FF920F9319
:102B10001F93CF93DF93F82E092F162FD72FC42F93
:102B2000222349F081E0809384020E948E259093B5
:102B3000830280938202809184028823D9F080915D
:102B40008202909183020E94A625059798F0EF2DAE
:102B5000F02FA12FBD2F80E090E04C2F50E0841784
:102B6000950734F4219131912D933D930196F7CF40
:102B700010928402DF91CF911F910F91FF900895E1
:102B80000E94A6270E944B110C94B2270E94B627E0
:102B90000E9455110C94D0270E9414250E948D2765
:102BA0000E943D110E94C0150E94C6150E94471147
:102BB000FBCF80918D0280FF0BC06091080185E002
:102BC000689FB001112475956795759567952BC021
:102BD00081FF09C06091080185E0689FB001112460
:102BE0007595679520C082FF07C06091080185E058
:102BF000689FB001112417C090918C029923D1F0E5
:102C000060910701961788F72091080185E0289FB9
:102C100090011124929FA001939F500D112470E008
:102C2000CA010E94042D6038710540F461157105D8
:102C300019F406C065E070E0862F08958FE70895C7
:102C400081E0089580918D0280FF08C060910501A8
:102C500070E0759567957595679521C081FF06C0F1
:102C60006091050170E07595679519C082FF04C0F9
:102C70006091050170E010C090918B02992399F04A
:102C8000609104019617A0F780910501899FC0010A
:102C9000112470E00E94042D6038710540F4611524
:102CA000710519F406C061E070E0862F08958FE782
:102CB000089581E008958D3E21F40E94D9158195F3
:102CC00004C08E3E29F40E94D91580939102089584
:102CD0008F3E21F40E94D915819504C0803F29F4CC
:102CE0000E94D915809390020895893F19F40E949B
:102CF000221605C08A3F31F40E94221681958093E6
:102D0000920208958B3F21F40E942216819504C0FF
:102D10008C3F29F40E9422168093930208959FE02D
:102D2000980F983078F421E030E0A90102C0440FF8
:102D3000551F9A95E2F7CA0190918F02892B8093D3
:102D40008F0208958D3F21F480918D0281600BC028
:102D50008E3F21F480918D02826005C08F3F29F45F
:102D600080918D02846080938D0208958D3E39F4A8
:102D70009091910297FF35C01092910259C08E3EFA
:102D800029F4909191021916BCF32BC090919002F6
:102D90008F3E29F497FF25C01092900249C0803FD2
:102DA00019F41916CCF31DC090919202893F29F4B1
:102DB0001916BCF4109292023BC08A3F19F497FF97
:102DC00010C0F8CF8B3F39F49091930297FF09C060
:102DD000109293022DC08C3F21F49091930219160A
:102DE000BCF39FE0980F983080F421E030E0A90117
:102DF00002C0440F551F9A95E2F7CA018095909141
:102E00008F02892380938F0213C08D3F21F480911C
:102E10008D028E7F0BC08E3F21F480918D028D7FBD
:102E200005C08F3F29F480918D028B7F80938D02A6
:102E300080919002811106C080919102811102C09F
:102E400010928C0280919202811106C080919302AF
:102E5000811102C010928B0208950E948E2520914C
:102E60009002211104C020919102222321F090931D
:102E70008A028093890220919202211104C020913C
:102E80009302222321F090938802809387028EE898
:102E900092E00C940224EF92FF920F931F93CF9332
:102EA000DF9300D000D000D0CDB7DEB786E0EEE8EB
:102EB000F2E0DE01119601900D928A95E1F7E09023
:102EC0009002F09091020091920210919302109260
:102ED0009002109291021092920210929302E110CD
:102EE00003C0FF2009F45DC08091890290918A029D
:102EF0000E94A625AC0190918C02992339F0209173
:102F0000090130E02417350758F04BC020918602A4
:102F10008AE0289F900111242417350718F041C03A
:102F20009F3F19F09F5F90938C02EE2061F00E940A
:102F3000D9151E1414F09FEF01C091E0989F902DB9
:102F4000112490939002FF2061F00E94D9151F1464
:102F500014F09FEF01C091E0989F902D1124909361
:102F60009102309190023323E1F0209191022223CB
:102F7000C1F045EB3403C0011124992319F090935B
:102F8000900203C081E08093900235EB2303C001DF
:102F90001124992319F09093910203C081E080934A
:102FA0009102011103C0112309F45DC080918702D1
:102FB000909188020E94A625AC0190918B029923E2
:102FC00039F02091060130E02417350758F04BC046
:102FD000209185028AE0289F90011124241735074B
:102FE00018F041C09F3F19F09F5F90938B02002320
:102FF00061F00E942216101614F09FEF01C091E0BC
:10300000989F902D112490939202112361F00E94B9
:103010002216111614F09FEF01C091E0989F902D99
:10302000112490939302309192023323E1F0209186
:1030300093022223C1F045EB3403C00111249923EC
:1030400019F09093920203C081E08093920235EBD5
:103050002303C0011124992319F09093930203C014
:1030600081E0809393028091900281110BC0809146
:103070009102811107C080919202811103C0809159
:10308000930281110E942D17EB82FC820D831E8317
:1030900086E0FE013196AEE8B2E001900D928A958D
:1030A000E1F726960FB6F894DEBF0FBECDBFDF91D5
:1030B000CF911F910F91FF90EF900895EEE8F2E00D
:1030C00086E0DF011D928A95E9F710928C0210923A
:1030D0008B0210928D020895EF92FF920F931F932F
:1030E000CF93DF938B01682F11110AC0442329F07D
:1030F000E82FF0E0ED52FA4F6491762F862F75C0DD
:10310000212F30E0E82FF0E0442321F0ED52FA4F78
:10311000E491F0E046E0049FC0011124CFEFD0E03D
:10312000BE010E94F02C4BEA4603C001479F900D60
:103130001124800F911D800F911D982F990F890FD9
:10314000AE01421B530B4E9FD0014F9FB00D5E9FAF
:10315000B00D11249B2F189FA0011124452F552736
:103160008E01041B150B0E9FA0010F9F500D1E9F7B
:10317000500D11247E01E81AF108E29E8001E39EC1
:10318000100DF29E100D1124212F3327C21BD30BDB
:10319000CE9F9001CF9F300DDE9F300D1124623005
:1031A0007105A9F048F46115710569F06130710588
:1031B000C9F48B2F752F0DC06430710581F058F064
:1031C0006630710579F47E2F8B2F932F0DC0832FDE
:1031D0007B2F9E2F09C08E2F7B2F952F05C08E2F02
:1031E000732F02C07E2F852F692FDF91CF911F9102
:1031F0000F91FF90EF90089541E00E946C180895A0
:1032000008950E94FC180895CF93DF93762FE9016B
:10321000682F842F0E940119798368838A83DF9144
:10322000CF9108958091ED02282F269530E0211549
:10323000310519F48170826005C02532310524F012
:10324000817088648093ED02089588E090E00C948A
:10325000932DCF92DF92EF92FF926B017C010E943F
:103260001219B701A60188E090E0FF90EF90DF907F
:10327000CF900C94B12DEDEEF2E083E080831182CB
:103280008FEF828383831482608171818281938135
:103290000C9429198091ED0280FF02C08695089553
:1032A00080E008959091F102933018F49F5F90931D
:1032B000F102882351F06091ED027091EE0280914D
:1032C000EF029091F0020C942919089581E00C947A
:1032D00052199091F102992319F091509093F102B3
:1032E000882351F06091ED027091EE028091EF021F
:1032F0009091F0020C942919089581E00C946919B9
:1033000070E00C947F2160910E018091ED0280FFAE
:103310000AC080910D0123E0829FC00111248E50CC
:103320009D4F0C94801980910F0190911001891785
:1033300080F7E82FF0E09F01220F331FE20FF31F09
:10334000EE50FD4F1182108212828F5FF0CF90916C
:10335000ED0290FF16C090910F012091100192177D
:1033600070F4E92FF0E0DF01AA0FBB1FEA0FFB1F8B
:10337000EE50FD4F8183608342839F5FF0CF0C94BA
:1033800083190895CF93DF9300D01F92CDB7DEB796
:103390009091ED0290FF0AC09E012F5F3F4F0E9467
:1033A00004194B8169818A810E94A7190F900F909F
:1033B0000F90DF91CF910895CF93DF93EC01EC81D3
:1033C000F0E0E253FB4F4491EDEEF2E06281818147
:1033D0000E94C2198C818F5F8C83DF91CF910895F9
:1033E000CF93DF93EC01EDEEF2E0438162818C81BB
:1033F0000E94C2198C818F5F8C83DF91CF910895D9
:103400000F931F93CF93DF9300D01F92CDB7DEB7FA
:103410008C018091940281110AC09E012F5F3F4F61
:103420004FEF6FEF0E9404198A8180939402F80194
:103430008481813051F028F0823061F4409194020F
:103440000AC08091940240E007C06091940240E07D
:1034500080E003C040E080E060E00E94A719F8012E
:10346000848190E0019663E070E00E94042D8483E3
:103470000F900F900F90DF91CF911F910F910895B2
:10348000AF92BF92CF92DF92EF92FF920F931F9372
:10349000CF93DF9300D01F92CDB7DEB7182FF62E53
:1034A000042FE22E9091ED0290FF6DC0E92FE6957A
:1034B000AE2FB0E0AE55BE4F8C918093A0029E7FA0
:1034C000923061F49E012F5F3F4F812F0E940419BB
:1034D0004B8169818A810E94A71943C0823019F407
:1034E0000091F0023EC0863019F41091EE0239C00E
:1034F0008930D9F38931A9F5E9518E2F8170D82E01
:10350000E695F0E0E253FA4FA590B490C12CBB24AD
:1035100060911101C61618F52C2D30E0A29EC00155
:10352000A39E900DB29E900D112470E00E94F02C8D
:10353000812FD11002C0860F01C0861B90910F0110
:10354000290F311DA901440F551F240F351F2E507F
:103550003D4F402F6F2D0E940419C394D9CF0E9474
:1035600083191093EE02F092EF020093F002EE2026
:1035700051F06091ED027091EE028091EF02909116
:10358000F0020E9429190F900F900F90DF91CF91B8
:103590001F910F91FF90EF90DF90CF90BF90AF9071
:1035A0000895EDEEF2E09181282F4381628188E059
:1035B000890F0C94401A81E00C94D11AEDEEF2E0E0
:1035C0009181282F4381628188EF890F0C94401AE2
:1035D00081E00C94DE1AEDEEF2E0628128E0620FE9
:1035E00008F46FEF282F438181810C94401A81E009
:1035F0000C94EB1AEDEEF2E0628128E0621B08F415
:1036000060E0282F438181810C94401A81E00C9462
:10361000FA1AEDEEF2E0438128E0420F08F44FEF92
:10362000282F628181810C94401A81E00C94091B3F
:10363000EDEEF2E0438128E0421B08F440E0282F41
:10364000628181810C94401A81E00C94181B20E067
:103650000C94401AFF920F931F93CF93DF93EC01CA
:10366000F12C0FEF10E060911101F616F0F480914B
:103670000F012F2D30E0280F311DC901880F991F30
:10368000280F391F2E503D4F70E0C8010E94042DB5
:10369000962F8C814091F0026091EF02F99E800D8F
:1036A00011240E940419F394DECF0E9483199A8199
:1036B0008C8190FF02C08F5F01C081508C83DF91AD
:1036C000CF911F910F91FF900895BF92CF92DF92FB
:1036D000EF92FF920F931F93CF93DF93FC018281B0
:1036E00080FF02C00FEF01C001E010E080911101E6
:1036F000181708F040C080910F01C12ED12CE601AF
:10370000C80FD11DCE01880F991FC80FD91FCE50E9
:10371000DD4F198218821A8234E0E32EF12CB12C8D
:10372000809196028B0D813114F08F7005C087FF58
:1037300003C090911101890F082E000C990BC81637
:10374000D90691F48091F0028E9DA0018F9D500DBD
:10375000112455954795559547959E016091EF0227
:103760008091EE020E940419B00EF1E0EF1AF10808
:10377000B9F61F5FBBCF0E9483198091960201307A
:1037800031F4811102C080911101815007C090E095
:1037900001966091110170E00E94042D80939602C1
:1037A000DF91CF911F910F91FF90EF90DF90CF901D
:1037B000BF900895CF9380910F01909110018917C8
:1037C00070F4E82FF0E09F01220F331FE20FF31F88
:1037D000EE50FD4F1182108212828F5FF0CFC0E059
:1037E00060911101C617C0F5EC2FF0E070E0CF0139
:1037F0000E94042D20910F01820F20919502022E2C
:10380000000C330B90E0E217F307CCF020910C0191
:10381000022E000C330B2E173F078CF09C01220F59
:10382000331F820F931F9C012E503D4F4091F00299
:103830006091EF028091EE020E9404190BC0FC011E
:10384000EE0FFF1F8E0F9F1FFC01EE50FD4F1182E8
:1038500010821282CF5FC4CF0E94831920910B0186
:1038600080919502820F8093950290910C01920FA6
:1038700090930C0119165CF4082E000C990B4091E2
:10388000110150E041505109841795071CF0219512
:1038900020930B01CF9108958F929F92AF92BF9288
:1038A000CF92DF92EF92FF920F931F93CF93DF930C
:1038B0008C01FC014481C42FD0E09E01DE010E94F6
:1038C000482D9B01AC010E945E2D6B017C01E0E262
:1038D000F0E0EC1BFD0BA5E5B0E09B01AC010E9404
:1038E0005E2D4B015C019F01DF010E94402D9B0179
:1038F000AC010E94692D9B01AC012C0D3D1D4E1D9C
:103900005F1DC501B4010E94182DC22FD22F2A328B
:1039100028F4F3E02F9F900111240DC025E530E03D
:103920002C1B3109C901880F991F280F391F37FF38
:1039300002C02F5F3F4F35952795C22FC095F12CC0
:1039400085E5E82EED1A80911101F816C8F4F1FC16
:1039500002C08E2D01C08D2F90910F012F2D30E0D0
:10396000290F311DA901440F551F240F351F2E505B
:103970003D4F4C2F6091EF020E940419F394E3CF66
:103980000E948319F8018481811102C091E003C073
:10399000803219F49FEF90930A0190910A01890FE8
:1039A000F8018483DF91CF911F910F91FF90EF90E9
:1039B000DF90CF90BF90AF909F908F9008950F931E
:1039C0001F93CF93DF93EC0100E010E08091110191
:1039D000282F30E00217130724F590910F0198016A
:1039E000290F311DA901440F551F240F351F2E50DB
:1039F0003D4F869590E04C81081719071CF444232D
:103A000031F002C0411103C04091F00201C040E01A
:103A10006091EF028091EE020E9404190F5F1F4F28
:103A2000D5CF0E9483198C8190E0019681709927EF
:103A30008C83DF91CF911F910F910895EDEEF2E00D
:103A400080818E7F808360817181828193810E94D9
:103A500029191092A1022FEF80E792E021508040B7
:103A60009040E1F700C000000C948319EDEEF2E005
:103A700080818E7F80831092A1022FEF80E792E0F9
:103A8000215080409040E1F700C000000C94831961
:103A90001092A10280919E0281110AC081E0809360
:103AA0009E028091ED02817080939D020C94361DE0
:103AB00008956091ED02669570E04BE050E082E180
:103AC00091E00E94712D892B19F481E08093A1026D
:103AD0000E948E259093980280939702089590916A
:103AE000ED0290FF35C09170811102C0926006C056
:103AF000853210F0986402C0880F982B9093ED02E5
:103B0000662351F06091ED027091EE028091EF0218
:103B10009091F0020E9429196091ED02669570E083
:103B20004BE050E082E191E00E94712D892B19F069
:103B30001092A10202C00E94591D81E080939A0256
:103B40004091F0026091EF028091EE020C94271BED
:103B50000895682F9091ED02969581E0890F853246
:103B600008F081E00C946F1D81E00C94A91D682F72
:103B70009091ED0296958FEF890F09F484E20C94F1
:103B80006F1D81E00C94B71D61E00C946F1DEDEE8C
:103B9000F2E080818160808386950C94C41D8091C1
:103BA000ED0280FD0C941E1D0C94C71D60E00C946A
:103BB0006F1D80919F0281112EC00E9463108111A0
:103BC00004C00E940B110E943B190E9425196093AA
:103BD000ED027093EE028093EF029093F0026E7FFD
:103BE00061F40E943B190E9425196093ED027093C5
:103BF000EE028093EF029093F0020E94121910924D
:103C0000A1028091ED0280FF03C086950E94D61D1F
:103C100081E080939F020895EDEEF2E08081816063
:103C2000808386950C94D61D10929E0280919D02F1
:103C300081110E940C1E0C94591D0F931F93CF935A
:103C4000DF938091A102882309F485C08091A002AE
:103C5000E091ED02E695E81BE0939902823049F489
:103C6000F0E0E653FB4FE491CE2FD0E00CED19E1EC
:103C700049C0863049F4F0E0E953FB4FE491CE2F80
:103C8000D0E000EF19E13EC0893051F4E695F0E054
:103C9000EC53FB4FE491CE2FD0E00AE21BE132C09F
:103CA0008F3051F4E695F0E0EF53FB4FE491CE2FC7
:103CB000D0E005E61BE126C0853149F4F0E0E2548E
:103CC000FB4FE491CE2FD0E00AED1BE11BC0883101
:103CD00081F0833239F4ECEBF4E0C591D49100E04B
:103CE0001AE110C0843251F4C4EFD1E00FED1CE1B1
:103CF00009C0C8E2D0E00CE41CE104C0C0EDD7E08C
:103D000000E019E180919A02882361F010929A02F2
:103D10000E948E25909398028093970210929C02A5
:103D200010929B020E948E25E0919702F0919802DA
:103D30008E1B9F0B8F3F9F4770F4EC0FFD1FF0937E
:103D40009802E093970287E992E0F801DF91CF9122
:103D50001F910F910994DF91CF911F910F910895B9
:103D6000882311F0FA0101C0FB010994CF93DF937E
:103D7000C82FD62F0E944A198C1740F00E944A196A
:103D80008D1720F4DF91CF910C94B41D8C2FDF910F
:103D9000CF910C94C41D1F93CF93DF93FB0112812D
:103DA000112309F4BCC0EC010E947A0F8272CD3C51
:103DB000FCE5DF0709F497C008F043C0C73CECE519
:103DC000DE0709F47CC0D8F4C43C9CE5D90709F4AB
:103DD0006AC038F4C33CDC4509F0A4C00E94CF1D82
:103DE000A0C0C53C9CE5D90709F462C0C63CDC45CF
:103DF00009F098C048EE5AE16BED7AE15DC0CA3C2B
:103E0000FCE5DF0709F465C070F4C83CECE5DE07AB
:103E100009F45AC0C93CDC4509F084C047EF5AE1B7
:103E200066E07BE149C0CB3C9CE5D90709F456C06C
:103E3000CC3CDC4509F076C04DE759E166E679E116
:103E40003BC0C23DFCE5DF0709F45AC098F4CF3C03
:103E50009CE5D90709F44EC008F44AC0C03DFCE512
:103E6000DF0709F44AC0C13DDC4509F05BC06EE0E4
:103E700089E04EC0C53D9CE5D90709F447C050F420
:103E8000C33DFCE5DF07F9F1C43DDC4509F04AC05C
:103E900088E142C0C63D9CE5D907E9F1CE35DD4554
:103EA00009F43FC03FC041EC5DE164EB7DE104C03B
:103EB00044EB5DE161EC7DE10E94B01E32C04BED50
:103EC0005AE168EE7AE1F8CF46E05BE167EF7AE12C
:103ED000F3CF44E25BE165E17BE1EECF45E15BE1FD
:103EE00064E27BE1E9CF46E659E16DE779E1E4CFB1
:103EF00081E012C065E082E00BC068E086E008C0A7
:103F000064E18FE005C067E185E102C062E289E11A
:103F10000E94B61E06C083E20E94C41D02C011E0CA
:103F200001C010E0812FDF91CF911F91089586E0AD
:103F300090E00C948B2D682F86E090E00C949F2DE0
:103F40008091220384708962809322030C949B1FCA
:103F50000E946310811104C00E940B110E94A01FD7
:103F60000E94971F80932203282F26952695269539
:103F700030E02630310524F0877088628093220378
:103F80008091220380FF04C086958695869501C0A6
:103F900080E00C94B92020912203822F869586958B
:103FA0008695482F50E04530510554F48F5F982F87
:103FB000990F990F990F822F8770892B8093220375
:103FC000809122038160809322030E949B1F809135
:103FD00022038695869586950C94B92080912203BC
:103FE000982F969596959695A1F0915E990F990FB9
:103FF000990F8770892B80932203887F91E009F4C1
:1040000090E08091220390FB80F9809322030E942C
:104010009B1F809122038695869586950C94B920E6
:104020008091220380FD13C0816080932203813040
:1040300019F489E080932203809122030E949B1F40
:10404000809122038695869586950C94B9200895D3
:104050008091220380FF08C08E7F809322030E94FC
:104060009B1F80E00C94B92008958091220380FD6D
:104070000C9428200C94102090912203892F86956F
:10408000869586958F5F8F719770863038F4880F8C
:10409000880F880F892B8093220302C090932203FC
:1040A00080912203887F91E009F490E080912203BF
:1040B00090FB80F9809322030E949B1F8091220332
:1040C0008695869586950C94B920863008F085E013
:1040D000909122039770282F220F220F220F922BEC
:1040E00090932203987F21E009F420E0909122032D
:1040F00020FB90F9909322030C94B9200E94652034
:10410000809122030C949B1F9C01FB0182818823D8
:1041100049F12E3BFCE53F07C9F040F42C3BECE5B0
:104120003E0769F02D3B3C4561F00895203C9CE53D
:10413000390791F070F0213C3C4589F0089585E005
:1041400001C080E00E947E2080E008950E94EE1F62
:10415000FBCF0E94CB1FF8CF0E943520F5CF0E94E5
:104160003C20F2CF81E00895269A2E9808952E984B
:1041700008958F929F92AF92BF92CF92DF92EF926B
:10418000FF920F931F93CF93DF93C82F863050F485
:10419000811109C0809180008F7D809380000E94F2
:1041A000B72006C0C5E080918000806280938000C7
:1041B000A0918600B09187002C2F30E00E94482DFE
:1041C00025E030E040E050E00E94182D0027122F3B
:1041D000232F342F012F122F232F33278091860076
:1041E000909187006CE070E00E94F02C60177107DE
:1041F00030F0C80169E070E00E94F02C5EC0809150
:10420000860090918700E0908600F0908700E09112
:104210008600F0918700C6E0D0E0BE010E94F02C3D
:10422000060F171F211D311D4801590185E0880C1B
:10423000991CAA1CBB1C8A95D1F7C701BE010E941C
:10424000F02C6F01E12CF12CA7019601260F371FEE
:10425000411D511DC501B4010E94182D69017A014B
:10426000E0918600F0918700CA01B9010E94E02C1C
:104270009B01AC01DF010E945E2D9B01AC01C701D7
:10428000B6010E94E02CDC01CB012FE0B695A7958A
:10429000979587952A95D1F7009186001091870010
:1042A00020E030E0081719072A073B0728F460913F
:1042B000860070918700CB01BC0170938B006093E6
:1042C0008A00DF91CF911F910F91FF90EF90DF90C7
:1042D000CF90BF90AF909F908F90089508950E94C7
:1042E000B42082E28093800089E1809381008FEF87
:1042F0009FEF90938700809386000C94A81F6A9A82
:104300002EB12B7F3EB134604FB7F894FC01CB0146
:10431000880F991F680F791F6E0F7F1FE617F70729
:1043200089F0819198E03EB9000000C087FF2EB966
:10433000880F000000C000C000C02EB900C09A95D0
:1043400091F7ECCF4FBF8FE594E00197F1F700C0F4
:1043500000000895CF93DF93EC01FB018281882355
:1043600009F426C1C430FDE5DF0760F4CB3F9CE5CE
:10437000D90768F49E0122503C452431310508F0EC
:1043800018C105C0C236EDE5DE0709F012C10E9472
:1043900076109093D4028093D302C031FCE5DF07FE
:1043A00009F4CAC008F041C0C8309CE5D90709F437
:1043B000A4C0F0F4C430FCE5DF0709F48CC068F455
:1043C000C2309CE5D90709F482C0C330DC4509F04E
:1043D000E5C08091D3028260DFC0C630FCE5DF0714
:1043E00009F483C008F085C08091D3028860D4C0EE
:1043F000CC309CE5D90709F490C068F4CA30FCE5DC
:10440000DF0709F47EC008F084C00E94A1098091F2
:10441000D3028068C1C0CE309CE5D90709F481C0C1
:1044200008F086C08091D30294C0CD3FFCE5DF0741
:1044300009F47BC038F5C4319CE5D90709F49AC06A
:1044400058F4C231FCE5DF0709F47AC008F07EC0F9
:104450008091D3028F7BA0C0CB3F9CE5D907F1F1BF
:1044600008F03FC0C531DC4509F098C08091D30207
:1044700082FB222720F991E0922790FB82F990FBA2
:1044800083F98AC0C1308DE5D80709F467C050F4BC
:104490008091D402CF3FECE5DE07C1F108F05BC0AC
:1044A0008D7F65C0C3308DE5D80709F471C008F46D
:1044B0006DC0C236DD4509F071C08091D30284FB26
:1044C000222720F991E0922790FB84F965C0809122
:1044D000D302816061C08091D30216C08091D40262
:1044E00016C08091D402826042C08091D302806164
:1044F00053C08091D30280624FC08091D302806408
:104500004BC08091D3028860846046C08260816025
:104510002EC08091D3028E7F3FC08091D3028D7FC9
:104520003BC08091D302877F37C08091D40214C0F2
:104530008091D3028F7E30C08091D3028F7D2CC0BA
:104540000E94A1098091D3028F7726C08091D30267
:10455000877F8B7F21C08D7F8E7F09C08091D402A1
:10456000982F909591708E7F892B90FB81F9809385
:10457000D40214C00E94A1098091D30287FB222794
:1045800020F991E0922790FB87F906C081E001C0F5
:1045900080E00E940D1102C08093D3028091D3026B
:1045A0009091D4020E9487100E94A10980E001C06E
:1045B00081E0DF91CF910895CF93DF9386319C45C1
:1045C00041F5EB010E947A0F982F8A812091020118
:1045D00030910301882379F09A7A81E009F480E030
:1045E0008093A202911102C069E201C065E3C90192
:1045F0000E94D2240AC08091A202811102C069E205
:1046000001C065E3C9010E94DD240E94CC0F80E057
:1046100001C081E0DF91CF9108950F931F93CF9355
:10462000DF93C42FD22FFC0182818823C9F04093ED
:10463000A5020E948E259093A4028093A30280E29B
:104640008C0F883008F057C0C77081E001C0880F18
:10465000CA95EAF7DF91CF911F910F910C94F30661
:104660008091A502481330C08091A3029091A402CA
:104670000E94A625883C910538F510E21D0FCD1744
:10468000B9F080E28C0F883040F4C77081E001C03F
:10469000880FCA95EAF70E94FA06183028F581E0DB
:1046A0009D2F977001C0880F9A95EAF70E94F30634
:1046B000802F0E94EA061830F0F4D77081E001C024
:1046C000880FDA95EAF70AC080E28C0F883098F4F8
:1046D000C77081E001C0880FCA95EAF7DF91CF91DA
:1046E0001F910F910C94FA06802FDF91CF911F91AB
:1046F0000F910C94EA06DF91CF911F910F910895CD
:104700000F939C01CB01243F4CE5340731F188F431
:10471000293DFCE53F07D9F02A3D4CE5340779F106
:10472000283D3C45A9F506E221EE41EE68ED7CE529
:104730002BC0263FFCE53F07E1F0A8F0273F3C45B2
:1047400039F507E225EE46EE67EF7CE51DC007E28E
:1047500025EE45EE69ED7CE517C006E221EE40EE60
:1047600064EF7CE511C007E225EE44EE65EF7CE5E1
:104770000BC006E221EE42EE66EF7CE505C008E2E2
:1047800021E045EE6AED7CE50E940D2380E008C043
:10479000FC018281882319F01092A50201C081E0FA
:1047A0000F9108959093C9018093C8010895909343
:1047B000AB028093AA020895E091AA02F091AB02A5
:1047C000309721F00190F081E02D099480E0089568
:1047D000E091AA02F091AB02309799F02091290163
:1047E000222359F02091D30227FF07C0DC012C912E
:1047F00011962C93119726E02C930280F381E02DE3
:1048000009940895E091AA02F091AB02309739F033
:1048100022E0DC012C930480F581E02D09940895B9
:104820002091A8023091A9022817390771F09093BE
:10483000A9028093A802E091AA02F091AB023097FE
:1048400021F00680F781E02D099408952091A602B9
:104850003091A7022817390771F09093A70280932F
:10486000A602E091AA02F091AB02309721F00084F9
:10487000F185E02D09940895FC013296809129017B
:10488000882331F08091D30287FF02C09EE101C0EE
:1048900096E080E0915028F021912223D9F38F5F98
:1048A000F9CF0895662351F1209129012223E9F0DF
:1048B0002091D30227FF19C0462F4695469546956D
:1048C0004E31E0F4677021E030E002C0220F331F68
:1048D0006A95E2F7FC01E40FF11D828190E0282344
:1048E000392381E0232B69F409C0FC013296089634
:1048F0002191621729F0E817F907D1F780E00895B0
:1049000081E008959C01FC0132969FEF80E0419187
:10491000461789F09F3F19F4411101C0982F8F5F0E
:104920008630A9F79F3F39F0F901E90FF11D97FD96
:10493000FA956283089508959C012A5F3F4FFC0118
:104940004281461301C01282019682179307B9F77C
:104950000895262F2695269526952E3168F4FC017C
:10496000E20FF11D677021E030E001C0220F6A956F
:10497000EAF78281282B22830895262F26952695F3
:1049800026952E3170F4FC01E20FF11D677021E0D5
:1049900030E001C0220F6A95EAF720958281282332
:1049A0002283089520912901222329F02091D30206
:1049B00027FD0C94A9240C94822420912901222300
:1049C00029F02091D30227FD0C94BD240C949C2443
:1049D00020912901FC013296222331F08091D302EB
:1049E00087FF02C08EE101C086E0DF011D928A953B
:1049F000E9F7089508950C94FA2483E08093AC02BB
:104A00000C94FB24811102C081E001C082E08093FC
:104A1000AC020C94FB240C94022581E08093AC0240
:104A20000C94FB240C940D25089580912B03843065
:104A300031F10E94CF041092AD0220E488E190E0B1
:104A40000FB6F894A895809360000FBE2093600085
:104A500083B7817F846083BF83B7816083BF78948D
:104A6000889583B78E7F83BF0FB6F894A895809101
:104A70006000886180936000109260000FBE08950E
:104A800008950C944025CF930E9441250E943A1529
:104A90000E944025C0E08C2F0E946614892B29F4C7
:104AA000CF5FC630C1F780E001C081E0CF910895AB
:104AB0000E94A1090C944B051F920F920FB60F9202
:104AC00011248F939F93AF93BF938091AD02811177
:104AD00013C08091230390912403A0912503B091EA
:104AE00026034196A11DB11D8093230390932403B7
:104AF000A0932503B0932603BF91AF919F918F910F
:104B00000F900FBE0F901F90189582E084BD93E028
:104B100095BD9AEF97BD80936E0008952FB7F894D6
:104B20008091230390912403A0912503B091260343
:104B30002FBF08952FB7F894609123037091240339
:104B400080912503909126032FBF08959C014FB7B4
:104B5000F8948091230390912403A0912503B091B0
:104B600026034FBF821B930B089578941F920F92D8
:104B70000FB60F9211248F939F93AF93BF938091A1
:104B8000230390912403A0912503B091260301965D
:104B9000A11DB11D8093230390932403A0932503AB
:104BA000B0932603BF91AF919F918F910F900FBE4D
:104BB0000F901F90189581E08093E00080E2809331
:104BC000D8001092C9008FE19EE40197F1F700C070
:104BD000000087E090EBDC01809334039093350371
:104BE000A0933603B09337039CE088E10FB6F894A6
:104BF000A895809360000FBE90936000FFCF8091D6
:104C0000D1020895089522E02093E9002FEF30911A
:104C1000E800215035FD06C035ED3A95F1F700006A
:104C20002111F5CF2091E80025FF0BC040E050E0B6
:104C300066E070E00E9442288091E8008E778093C1
:104C4000E8000895CF93DF9320912901222339F0C2
:104C50002091D30227FF03C060E222E002C068E097
:104C600021E02093E9002FEF3091E800215035FD3D
:104C700006C035ED3A95F1F700002111F5CF2091EE
:104C8000E80025FF1DC0EC0180912901811105C0BC
:104C900040E050E068E070E003C070E040E050E0C9
:104CA000CE010E9442288091E8008E778093E80030
:104CB00080E2FE01A1EBB2E001900D928A95E1F74E
:104CC000DF91CF9108958093AE027093B00260930C
:104CD000AF0280912B03843001F582E08093E900DC
:104CE0008FEF9091E800815095FD06C095ED9A9563
:104CF000F1F700008111F5CF8091E80085FF0DC02C
:104D000040E050E063E070E08EEA92E00E944228CA
:104D10008091E8008E778093E8000895BC0184E0DC
:104D20000C946326BC0183E00C94632680912A03D3
:104D3000811109C00E94D3290E94302A8091E2008B
:104D400084608093E200089510922A0308950C94E1
:104D500012256091270381E0611101C080E00C946D
:104D6000FD2490912B0381E0943009F080E0609164
:104D700027030C94022542E061EC81E00E944C295B
:104D800042E261EC82E00E944C2990912B0381E089
:104D9000943009F080E0609127030C940B258091FA
:104DA0002D03833009F461C030F4813071F082301A
:104DB00009F49AC008958A3009F486C08B3009F44A
:104DC0006CC0893009F0A8C020C080912C03813AC2
:104DD00009F0A2C08091E800877F8093E80080916D
:104DE000300390913103892B21F460E281EB92E052
:104DF00003C060E080E090E070E00E948D28809128
:104E0000E8008B778093E800089580912C0381322D
:104E100009F082C08091300390913103029708F02D
:104E20007BC08091E800877F8093E8008091E80054
:104E300082FD05C080912B038111F8CF6DC02091B8
:104E4000F3008091F20090E0922B029731F4809170
:104E5000F100813011F0863021F48091F1008093CF
:104E6000D1028091E8008B7753C080912C03813A66
:104E700009F052C08091300390913103892B09F0E1
:104E80004BC08091E800877F8093E8008091E80024
:104E900080FFFCCF8091290136C080912C038132A4
:104EA000D9F58091300390913103892BA9F5809138
:104EB000E800877F8093E8000E94812980912E037B
:104EC000809329010C94A10980912C03813221F552
:104ED0008091E800877F8093E8000E94812980917B
:104EE0002F038093D202089580912C03813AA1F47C
:104EF0008091E800877F8093E8008091E80080FF40
:104F0000FCCF8091D2028093F1008091E8008E77EF
:104F10008093E8000C948129089584B7877F84BF2B
:104F20000FB6F894A8958091600088618093600026
:104F3000109260000FBE90E080E80FB6F894809366
:104F40006100909361000FBE0C940D250E94D3293F
:104F50000E94302AE2EEF0E08081846080837894C1
:104F60000C94C52C8DE191E00C94D72380912B03F8
:104F70008530A9F480912B03853079F40E941525A2
:104F8000809129038823B1F30E944325882391F35C
:104F90000E942C280E94A109EDCF0C945825089559
:104FA00008950C94D327292F332723303105C9F0D6
:104FB00060F42130310581F02230310509F044C020
:104FC0008BE390E02DEF36E043C021323105E1F074
:104FD0002232310549F138C082E190E028E337E020
:104FE00037C099278130910549F028F0029761F583
:104FF000E3EDF6E005C0E9EFF6E002C0E1EEF6E031
:10500000849190E09F0124C06115710541F06130E9
:105010007105D1F489E090E028E237E019C089E019
:1050200090E02FE037E014C06115710541F0613068
:10503000710551F486EB90E02AE437E009C080E482
:1050400090E020E038E004C080E090E020E030E034
:10505000FA0131832083089580E189BD82E189BD11
:1050600009B400FEFDCF8091D8008F7D8093D800D9
:105070008091E00082608093E0008091E00081FDFB
:10508000FCCF0895CF92DF92EF92FF920F931F9380
:10509000CF93DF93EC018B017A010E94A02981114B
:1050A00033C0E114F10439F0F70180819181081BCC
:1050B000190BC80FD91FC12CD12C0115110519F1DD
:1050C0008091E80085FD16C08091E8008E7780937E
:1050D000E800E114F10449F0F70180819181C80EE4
:1050E000D91ED182C08285E00FC00E94A0298823EA
:1050F00021F30AC089918093F10001501109FFEF5B
:10510000CF1ADF0ADACF80E0DF91CF911F910F91A4
:10511000FF90EF90DF90CF9008952091320330916F
:1051200033032617370748F06115710539F42091CC
:10513000E8002E772093E80001C0B901FC0120E0CF
:105140006115710579F180912B038823F1F1853088
:10515000F1F18091E80083FD3CC08091E80082FD80
:105160002EC08091E80080FFEBCF2091F30080916A
:10517000F20090E0922B6115710551F08830910595
:1051800038F421912093F100615071090196F3CF19
:1051900021E0089709F020E08091E8008E77809365
:1051A000E800CECF2111CFCF0AC080912B038823F6
:1051B00061F0853061F08091E80083FD0AC0809144
:1051C000E80082FFF2CF80E0089582E0089583E056
:1051D000089581E00895209132033091330326171A
:1051E000370748F06115710539F42091E8002E77F2
:1051F0002093E80001C0B901FC0120E061157105B0
:1052000091F180912B03882309F440C0853009F483
:105210003FC08091E80083FD3DC08091E80082FDA1
:105220002FC08091E80080FFE9CF2091F3008091AA
:10523000F20090E0922B6115710559F088309105CC
:1052400040F424912093F100319661507109019648
:10525000F2CF21E0089709F020E08091E8008E77F6
:105260008093E800CBCF2111CCCF0AC080912B03D3
:10527000882361F0853061F08091E80083FD0AC0E9
:105280008091E80082FFF2CF80E0089582E00895E7
:1052900083E0089581E00895982F973068F5909302
:1052A000E900981739F07091EC002091ED005091D1
:1052B000F00003C0242F762F50E021FD02C09F5F35
:1052C000ECCF3091EB003E7F3093EB003091ED005E
:1052D0003D7F3093ED003091EB0031603093EB0077
:1052E0007093EC002093ED005093F0002091EE00BD
:1052F00027FDE5CF80E008958F708093E90081E07D
:10530000089580912C0387FF11C08091E80082FDF1
:1053100005C080912B038111F8CF11C08091E80066
:105320008B770BC080912B03882349F08091E80094
:1053300080FFF8CF8091E8008E778093E800089591
:105340002091E4003091E50095E64091EC00842F37
:10535000817040FF23C08091E80080FD1DC08091D6
:105360002B03882399F0853099F08091EB0085FD1F
:1053700011C04091E4005091E5002417350729F34E
:10538000915011F09A01E1CF84E0089582E00895F0
:1053900083E0089581E0089580E008954091E80059
:1053A00042FFDDCF08950E94412A0E94492AE0EE83
:1053B000F0E0808181608083E8EDF0E080818F778C
:1053C000808319BCA7EDB0E08C918E7F8C93808197
:1053D0008F7E808310922A0308950F931F93CF939B
:1053E000DF930E94412A0E94492AC8EDD0E08881BB
:1053F0008F77888388818068888388818F7D888380
:1054000019BC10922B0310922703109229031092BB
:10541000280300EE10E0F80180818B7F8083888173
:105420008160888342E060E080E00E944C29E1EEE8
:10543000F0E080818E7F8083E2EEF0E08081816009
:105440008083808188608083F80180818E7F808363
:10545000888180618883DF91CF911F910F9108959A
:10546000E8EDF0E080818F7E8083E7EDF0E08081E1
:105470008160808384E082BF81E080932A030C9462
:10548000ED29E8EDF0E080818E7F80831092E200CC
:1054900008951092DA001092E10008951F920F9281
:1054A0000FB60F9211242F933F934F935F936F93F7
:1054B0007F938F939F93AF93BF93EF93FF938091CD
:1054C000E10082FF0BC08091E20082FF07C0809163
:1054D000E1008B7F8093E1000E94C42C8091DA0070
:1054E00080FF1FC08091D80080FF1BC08091DA0030
:1054F0008E7F8093DA008091D90080FF0DC080E11B
:1055000089BD82E189BD09B400FEFDCF81E08093B1
:105510002B030E94962605C019BC10922B030E94F3
:10552000A4268091E10080FF19C08091E20080FFF5
:1055300015C08091E2008E7F8093E2008091E200AE
:1055400080618093E2008091D80080628093D800CF
:1055500019BC85E080932B030E94A9268091E1006D
:1055600084FF30C08091E20084FF2CC080E189BDBF
:1055700082E189BD09B400FEFDCF8091D8008F7D06
:105580008093D8008091E1008F7E8093E10080912C
:10559000E2008F7E8093E2008091E2008160809340
:1055A000E20080912703882311F084E007C08091F6
:1055B000E30087FD02C081E001C083E080932B03FC
:1055C0000E94B1268091E10083FF29C08091E20012
:1055D00083FF25C08091E100877F8093E10082E016
:1055E00080932B03109227038091E1008E7F80939C
:1055F000E1008091E2008E7F8093E2008091E200E2
:1056000080618093E20042E060E080E00E944C29EB
:105610008091F00088608093F0000E94A726FF919F
:10562000EF91BF91AF919F918F917F916F915F911A
:105630004F913F912F910F900FBE0F901F90189593
:105640001F920F920FB60F9211242F933F934F93F7
:105650005F936F937F938F939F93AF93BF93CF93FA
:10566000DF93EF93FF93C091E900CF708091EC003E
:10567000D82FD17080FDD0E81092E9008091F00021
:10568000877F8093F00078940E94642B1092E90049
:105690008091F00088608093F000CD2BCF70C09394
:1056A000E900FF91EF91DF91CF91BF91AF919F9171
:1056B0008F917F916F915F914F913F912F910F90BB
:1056C0000FBE0F901F9018951F93CF93DF93CDB708
:1056D000DEB7AA970FB6F894DEBF0FBECDBFECE2DF
:1056E000F3E08091F100819323E0E433F207C9F7FE
:1056F0000E94CF268091E80083FF2EC180912C0369
:1057000090912D03492F50E04A30510508F024C1F3
:10571000FA01EC58FF4F0C943A2D803821F0823872
:1057200009F01AC108C08091280390912903992398
:1057300089F082600FC0809130038F70873008F04D
:105740000BC18093E9008091EB0085FB882780F9ED
:105750001092E9009091E800977F9093E800809381
:10576000F1001092F100D1C0282F2D7F09F0F4C074
:10577000882319F0823061F0EFC080912E038130D0
:1057800009F0EAC0933009F080E0809329032EC02D
:1057900080912E0381112AC0809130038F702FEFEA
:1057A000280F263008F0D8C08093E9002091EB0044
:1057B00020FF1CC0933021F48091EB00806214C064
:1057C0009091EB0090619093EB0021E030E0A90113
:1057D00002C0440F551F8A95E2F74093EA001092E9
:1057E000EA008091EB0088608093EB001092E90062
:1057F0008091E800877F8093E8000E948129ACC0F7
:105800008111AAC010912E031F778091E300807848
:10581000812B8093E3008091E800877F8093E800EC
:105820000E9481298091E80080FFFCCF8091E300F5
:1058300080688093E300111102C082E001C083E020
:1058400080932B0389C08058823008F085C08091F6
:105850002E0390912F038C3D53E0950779F583E05B
:105860008A838AE289834FB7F894DE01139620E099
:105870003EE051E2E32FF0E050935700E49120FF27
:1058800003C0E295EF703F5FEF708E2F90E0EA303B
:1058900010F0C79601C0C0968D939D932F5F243161
:1058A00049F74FBF8091E800877F8093E8006AE264
:1058B00070E0CE0101960E948D2816C060913003E1
:1058C00070913103AE014F5F5F4F0E94D127BC0141
:1058D000892B09F441C09091E800977F9093E800EC
:1058E00089819A810E94EB288091E8008B778093D0
:1058F000E80032C0803881F58091E800877F80938E
:10590000E800809127038093F1008091E8008E7772
:1059100072CF811121C080912E0390912F0399277E
:105920000297D4F48091E800877F8093E80080910B
:105930002E03809327030E948129809127038111E0
:1059400006C08091E30087FD02C081E001C084E0D1
:1059500080932B030E94BB268091E80083FF0AC03E
:105960008091E800877F8093E8008091EB0080625F
:105970008093EB00AA960FB6F894DEBF0FBECDBFA2
:10598000DF91CF911F9108950895CF9380912B03BC
:105990008823A1F0C091E900CF709091EC00892F8D
:1059A000817090FD80E8C82B1092E9008091E8009A
:1059B00083FD0E94642BCF70C093E900CF910895BE
:1059C000DB018F939F930E945E2DBF91AF91A29FA9
:1059D000800D911DA39F900DB29F900D11240895ED
:1059E000AA1BBB1B51E107C0AA1FBB1FA617B70705
:1059F00010F0A61BB70B881F991F5A95A9F7809521
:105A00009095BC01CD01089597FB072E16F40094E4
:105A100007D077FD09D00E94F02C07FC05D03EF49A
:105A2000909581959F4F0895709561957F4F08954A
:105A3000A1E21A2EAA1BBB1BFD010DC0AA1FBB1F92
:105A4000EE1FFF1FA217B307E407F50720F0A21B04
:105A5000B30BE40BF50B661F771F881F991F1A9471
:105A600069F760957095809590959B01AC01BD019B
:105A7000CF010895EE0FFF1F0590F491E02D0994DA
:105A80000E94482D332312F48A1B9B0B0C94592D32
:105A9000A29FB001B39FC001A39F700D811D11246F
:105AA000911DB29F700D811D1124911D08950E94BA
:105AB000482DB7FF0895821B930B08950E94482D2F
:105AC000A59F900DB49F900DA49F800D911D112452
:105AD0000895B7FF0C945E2D0E945E2D821B930BE0
